{
  "_format": "hh-sol-artifact-1",
  "contractName": "RandomContract2",
  "sourceName": "meow/random/RandomContract2.sol",
  "abi": [
    {
      "inputs": [],
      "name": "whatever",
      "outputs": [
        {
          "internalType": "string",
          "name": "",
          "type": "string"
        }
      ],
      "stateMutability": "nonpayable",
      "type": "function"
    }
  ],
  "bytecode": "0x608060405234801561001057600080fd5b50610119806100206000396000f3fe6080604052348015600f57600080fd5b506004361060285760003560e01c8063c7f9753414602d575b600080fd5b60336047565b604051603e9190606a565b60405180910390f35b606060006040518060600160405280602d81526020016100b7602d913992915050565b600060208083528351808285015260005b81811015609557858101830151858201604001528201607b565b506000604082860101526040601f19601f830116850101925050509291505056fe5768617465766572206f6e652c2074776f2c2074687265652066726f6d2052616e646f6d436f6e747261637432a2646970667358221220c9e59136d7300f1578e885129d989cab3d890c76643c7deb5425abf17d384b1d64736f6c63430008130033",
  "linkReferences": {},
  "deployedLinkReferences": {}
}