{
  "meow/random/RandomContract2.sol": {
    "RandomContract2": {
      "abi": [
        {
          "inputs": [],
          "name": "whatever",
          "outputs": [
            {
              "internalType": "string",
              "name": "",
              "type": "string"
            }
          ],
          "stateMutability": "nonpayable",
          "type": "function"
        }
      ],
      "devdoc": {
        "kind": "dev",
        "methods": {},
        "version": 1
      },
      "evm": {
        "bytecode": {
          "linkReferences": {},
          "object": "608060405234801561001057600080fd5b50610119806100206000396000f3fe6080604052348015600f57600080fd5b506004361060285760003560e01c8063c7f9753414602d575b600080fd5b60336047565b604051603e9190606a565b60405180910390f35b606060006040518060600160405280602d81526020016100b7602d913992915050565b600060208083528351808285015260005b81811015609557858101830151858201604001528201607b565b506000604082860101526040601f19601f830116850101925050509291505056fe5768617465766572206f6e652c2074776f2c2074687265652066726f6d2052616e646f6d436f6e747261637432a2646970667358221220c9e59136d7300f1578e885129d989cab3d890c76643c7deb5425abf17d384b1d64736f6c63430008130033",
          "opcodes": "PUSH1 0x80 PUSH1 0x40 MSTORE CALLVALUE DUP1 ISZERO PUSH2 0x10 JUMPI PUSH1 0x0 DUP1 REVERT JUMPDEST POP PUSH2 0x119 DUP1 PUSH2 0x20 PUSH1 0x0 CODECOPY PUSH1 0x0 RETURN INVALID PUSH1 0x80 PUSH1 0x40 MSTORE CALLVALUE DUP1 ISZERO PUSH1 0xF JUMPI PUSH1 0x0 DUP1 REVERT JUMPDEST POP PUSH1 0x4 CALLDATASIZE LT PUSH1 0x28 JUMPI PUSH1 0x0 CALLDATALOAD PUSH1 0xE0 SHR DUP1 PUSH4 0xC7F97534 EQ PUSH1 0x2D JUMPI JUMPDEST PUSH1 0x0 DUP1 REVERT JUMPDEST PUSH1 0x33 PUSH1 0x47 JUMP JUMPDEST PUSH1 0x40 MLOAD PUSH1 0x3E SWAP2 SWAP1 PUSH1 0x6A JUMP JUMPDEST PUSH1 0x40 MLOAD DUP1 SWAP2 SUB SWAP1 RETURN JUMPDEST PUSH1 0x60 PUSH1 0x0 PUSH1 0x40 MLOAD DUP1 PUSH1 0x60 ADD PUSH1 0x40 MSTORE DUP1 PUSH1 0x2D DUP2 MSTORE PUSH1 0x20 ADD PUSH2 0xB7 PUSH1 0x2D SWAP2 CODECOPY SWAP3 SWAP2 POP POP JUMP JUMPDEST PUSH1 0x0 PUSH1 0x20 DUP1 DUP4 MSTORE DUP4 MLOAD DUP1 DUP3 DUP6 ADD MSTORE PUSH1 0x0 JUMPDEST DUP2 DUP2 LT ISZERO PUSH1 0x95 JUMPI DUP6 DUP2 ADD DUP4 ADD MLOAD DUP6 DUP3 ADD PUSH1 0x40 ADD MSTORE DUP3 ADD PUSH1 0x7B JUMP JUMPDEST POP PUSH1 0x0 PUSH1 0x40 DUP3 DUP7 ADD ADD MSTORE PUSH1 0x40 PUSH1 0x1F NOT PUSH1 0x1F DUP4 ADD AND DUP6 ADD ADD SWAP3 POP POP POP SWAP3 SWAP2 POP POP JUMP INVALID JUMPI PUSH9 0x617465766572206F6E PUSH6 0x2C2074776F2C KECCAK256 PUSH21 0x687265652066726F6D2052616E646F6D436F6E7472 PUSH2 0x6374 ORIGIN LOG2 PUSH5 0x6970667358 0x22 SLT KECCAK256 0xC9 0xE5 SWAP2 CALLDATASIZE 0xD7 ADDRESS 0xF ISZERO PUSH25 0xE885129D989CAB3D890C76643C7DEB5425ABF17D384B1D6473 PUSH16 0x6C634300081300330000000000000000 "
        },
        "methodIdentifiers": {
          "whatever()": "c7f97534"
        }
      },
      "storageLayout": {
        "storage": [],
        "types": null
      },
      "userdoc": {
        "kind": "user",
        "methods": {},
        "version": 1
      }
    }
  }
}